{
  "contractName": "Election",
  "abi": [
    {
      "constant": true,
      "inputs": [],
      "name": "candidatesCount",
      "outputs": [
        {
          "name": "",
          "type": "uint256"
        }
      ],
      "payable": false,
      "stateMutability": "view",
      "type": "function"
    },
    {
      "constant": true,
      "inputs": [
        {
          "name": "",
          "type": "uint256"
        }
      ],
      "name": "candidates",
      "outputs": [
        {
          "name": "id",
          "type": "uint256"
        },
        {
          "name": "name",
          "type": "string"
        },
        {
          "name": "partyName",
          "type": "string"
        },
        {
          "name": "partySymbol",
          "type": "string"
        },
        {
          "name": "voteCount",
          "type": "uint256"
        }
      ],
      "payable": false,
      "stateMutability": "view",
      "type": "function"
    },
    {
      "constant": true,
      "inputs": [],
      "name": "votingStarted",
      "outputs": [
        {
          "name": "",
          "type": "bool"
        }
      ],
      "payable": false,
      "stateMutability": "view",
      "type": "function"
    },
    {
      "constant": true,
      "inputs": [],
      "name": "ownerAddress",
      "outputs": [
        {
          "name": "",
          "type": "address"
        }
      ],
      "payable": false,
      "stateMutability": "view",
      "type": "function"
    },
    {
      "constant": true,
      "inputs": [],
      "name": "votersCount",
      "outputs": [
        {
          "name": "",
          "type": "uint256"
        }
      ],
      "payable": false,
      "stateMutability": "view",
      "type": "function"
    },
    {
      "constant": true,
      "inputs": [
        {
          "name": "",
          "type": "uint256"
        }
      ],
      "name": "voters",
      "outputs": [
        {
          "name": "id",
          "type": "uint256"
        },
        {
          "name": "age",
          "type": "uint256"
        },
        {
          "name": "name",
          "type": "string"
        },
        {
          "name": "voted",
          "type": "bool"
        }
      ],
      "payable": false,
      "stateMutability": "view",
      "type": "function"
    },
    {
      "inputs": [],
      "payable": true,
      "stateMutability": "payable",
      "type": "constructor"
    },
    {
      "constant": false,
      "inputs": [
        {
          "name": "_start",
          "type": "bool"
        }
      ],
      "name": "votingAction",
      "outputs": [],
      "payable": false,
      "stateMutability": "nonpayable",
      "type": "function"
    },
    {
      "constant": false,
      "inputs": [
        {
          "name": "_name",
          "type": "string"
        },
        {
          "name": "_age",
          "type": "uint256"
        }
      ],
      "name": "addVoter",
      "outputs": [],
      "payable": true,
      "stateMutability": "payable",
      "type": "function"
    },
    {
      "constant": false,
      "inputs": [
        {
          "name": "_name",
          "type": "string"
        },
        {
          "name": "_partyName",
          "type": "string"
        },
        {
          "name": "_partySymbol",
          "type": "string"
        }
      ],
      "name": "addCandidate",
      "outputs": [],
      "payable": true,
      "stateMutability": "payable",
      "type": "function"
    },
    {
      "constant": false,
      "inputs": [
        {
          "name": "_voterId",
          "type": "uint256"
        },
        {
          "name": "_candidateId",
          "type": "uint256"
        }
      ],
      "name": "voteCandidate",
      "outputs": [],
      "payable": true,
      "stateMutability": "payable",
      "type": "function"
    }
  ],
  "bytecode": "0x608060405233600260006101000a81548173ffffffffffffffffffffffffffffffffffffffff021916908373ffffffffffffffffffffffffffffffffffffffff160217905550600060038190555060006004819055506000600560006101000a81548160ff0219169083151502179055506110ec8061007f6000396000f3fe6080604052600436106100915760003560e01c8063ad71f8dc11610059578063ad71f8dc1461030c578063d2abaa58146104f5578063d89f3c1b146105ba578063da58c7d9146105f7578063eb1e6270146106c457610091565b80632d35a8a2146100965780633477ee2e146100c157806383d948b71461025b5780638f84aa091461028a57806398c07938146102e1575b600080fd5b3480156100a257600080fd5b506100ab6106fc565b6040518082815260200191505060405180910390f35b3480156100cd57600080fd5b506100fa600480360360208110156100e457600080fd5b8101908080359060200190929190505050610702565b60405180868152602001806020018060200180602001858152602001848103845288818151815260200191508051906020019080838360005b8381101561014e578082015181840152602081019050610133565b50505050905090810190601f16801561017b5780820380516001836020036101000a031916815260200191505b50848103835287818151815260200191508051906020019080838360005b838110156101b4578082015181840152602081019050610199565b50505050905090810190601f1680156101e15780820380516001836020036101000a031916815260200191505b50848103825286818151815260200191508051906020019080838360005b8381101561021a5780820151818401526020810190506101ff565b50505050905090810190601f1680156102475780820380516001836020036101000a031916815260200191505b509850505050505050505060405180910390f35b34801561026757600080fd5b50610270610900565b604051808215151515815260200191505060405180910390f35b34801561029657600080fd5b5061029f610913565b604051808273ffffffffffffffffffffffffffffffffffffffff1673ffffffffffffffffffffffffffffffffffffffff16815260200191505060405180910390f35b3480156102ed57600080fd5b506102f6610939565b6040518082815260200191505060405180910390f35b6104f36004803603606081101561032257600080fd5b810190808035906020019064010000000081111561033f57600080fd5b82018360208201111561035157600080fd5b8035906020019184600183028401116401000000008311171561037357600080fd5b91908080601f016020809104026020016040519081016040528093929190818152602001838380828437600081840152601f19601f820116905080830192505050505050509192919290803590602001906401000000008111156103d657600080fd5b8201836020820111156103e857600080fd5b8035906020019184600183028401116401000000008311171561040a57600080fd5b91908080601f016020809104026020016040519081016040528093929190818152602001838380828437600081840152601f19601f8201169050808301925050505050505091929192908035906020019064010000000081111561046d57600080fd5b82018360208201111561047f57600080fd5b803590602001918460018302840111640100000000831117156104a157600080fd5b91908080601f016020809104026020016040519081016040528093929190818152602001838380828437600081840152601f19601f82011690508083019250505050505050919291929050505061093f565b005b6105b86004803603604081101561050b57600080fd5b810190808035906020019064010000000081111561052857600080fd5b82018360208201111561053a57600080fd5b8035906020019184600183028401116401000000008311171561055c57600080fd5b91908080601f016020809104026020016040519081016040528093929190818152602001838380828437600081840152601f19601f82011690508083019250505050505050919291929080359060200190929190505050610aa8565b005b3480156105c657600080fd5b506105f5600480360360208110156105dd57600080fd5b81019080803515159060200190929190505050610c6a565b005b34801561060357600080fd5b506106306004803603602081101561061a57600080fd5b8101908080359060200190929190505050610d2d565b604051808581526020018481526020018060200183151515158152602001828103825284818151815260200191508051906020019080838360005b8381101561068657808201518184015260208101905061066b565b50505050905090810190601f1680156106b35780820380516001836020036101000a031916815260200191505b509550505050505060405180910390f35b6106fa600480360360408110156106da57600080fd5b810190808035906020019092919080359060200190929190505050610e02565b005b60035481565b6000602052806000526040600020600091509050806000015490806001018054600181600116156101000203166002900480601f0160208091040260200160405190810160405280929190818152602001828054600181600116156101000203166002900480156107b45780601f10610789576101008083540402835291602001916107b4565b820191906000526020600020905b81548152906001019060200180831161079757829003601f168201915b505050505090806002018054600181600116156101000203166002900480601f0160208091040260200160405190810160405280929190818152602001828054600181600116156101000203166002900480156108525780601f1061082757610100808354040283529160200191610852565b820191906000526020600020905b81548152906001019060200180831161083557829003601f168201915b505050505090806003018054600181600116156101000203166002900480601f0160208091040260200160405190810160405280929190818152602001828054600181600116156101000203166002900480156108f05780601f106108c5576101008083540402835291602001916108f0565b820191906000526020600020905b8154815290600101906020018083116108d357829003601f168201915b5050505050908060040154905085565b600560009054906101000a900460ff1681565b600260009054906101000a900473ffffffffffffffffffffffffffffffffffffffff1681565b60045481565b600260009054906101000a900473ffffffffffffffffffffffffffffffffffffffff1673ffffffffffffffffffffffffffffffffffffffff163373ffffffffffffffffffffffffffffffffffffffff16146109e5576040517f08c379a000000000000000000000000000000000000000000000000000000000815260040180806020018281038252602581526020018061109c6025913960400191505060405180910390fd5b6003600081548092919060010191905055506040518060a00160405280600354815260200184815260200183815260200182815260200160008152506000806003548152602001908152602001600020600082015181600001556020820151816001019080519060200190610a5b929190610ff6565b506040820151816002019080519060200190610a78929190610ff6565b506060820151816003019080519060200190610a95929190610ff6565b5060808201518160040155905050505050565b600260009054906101000a900473ffffffffffffffffffffffffffffffffffffffff1673ffffffffffffffffffffffffffffffffffffffff163373ffffffffffffffffffffffffffffffffffffffff1614610b4e576040517f08c379a000000000000000000000000000000000000000000000000000000000815260040180806020018281038252602581526020018061109c6025913960400191505060405180910390fd5b6012811015610bc5576040517f08c379a00000000000000000000000000000000000000000000000000000000081526004018080602001828103825260188152602001807f4167652073686f756c642062652061746c65617374203138000000000000000081525060200191505060405180910390fd5b600460008154809291906001019190505550604051806080016040528060045481526020018281526020018381526020016000151581525060016000600454815260200190815260200160002060008201518160000155602082015181600101556040820151816002019080519060200190610c42929190610ff6565b5060608201518160030160006101000a81548160ff0219169083151502179055509050505050565b600260009054906101000a900473ffffffffffffffffffffffffffffffffffffffff1673ffffffffffffffffffffffffffffffffffffffff163373ffffffffffffffffffffffffffffffffffffffff1614610d10576040517f08c379a000000000000000000000000000000000000000000000000000000000815260040180806020018281038252602581526020018061109c6025913960400191505060405180910390fd5b80600560006101000a81548160ff02191690831515021790555050565b6001602052806000526040600020600091509050806000015490806001015490806002018054600181600116156101000203166002900480601f016020809104026020016040519081016040528092919081815260200182805460018160011615610100020316600290048015610de55780601f10610dba57610100808354040283529160200191610de5565b820191906000526020600020905b815481529060010190602001808311610dc857829003601f168201915b5050505050908060030160009054906101000a900460ff16905084565b600454821180610e13575060035481115b15610e86576040517f08c379a00000000000000000000000000000000000000000000000000000000081526004018080602001828103825260188152602001807f496e76616c696420766f74696e67206f7065726174696f6e000000000000000081525060200191505060405180910390fd5b600560009054906101000a900460ff16610f08576040517f08c379a00000000000000000000000000000000000000000000000000000000081526004018080602001828103825260138152602001807f596f752063616e277420766f7465206e6f772e0000000000000000000000000081525060200191505060405180910390fd5b6001600083815260200190815260200160002060030160009054906101000a900460ff1615610f9f576040517f08c379a000000000000000000000000000000000000000000000000000000000815260040180806020018281038252600e8152602001807f416c726561647920766f7465642100000000000000000000000000000000000081525060200191505060405180910390fd5b60008082815260200190815260200160002060040160008154809291906001019190505550600180600084815260200190815260200160002060030160006101000a81548160ff0219169083151502179055505050565b828054600181600116156101000203166002900490600052602060002090601f016020900481019282601f1061103757805160ff1916838001178555611065565b82800160010185558215611065579182015b82811115611064578251825591602001919060010190611049565b5b5090506110729190611076565b5090565b61109891905b8082111561109457600081600090555060010161107c565b5090565b9056fe4f6e6c79206f776e65722063616e2061646420612063616e6469646174652f766f7465722ea165627a7a72305820e064f80b4877ebcfbcb006962ae3713e4d02d99196a40c62bdd671ffc0b7c8d60029",
  "source": "pragma solidity >= 0.5.8;\r\n\r\ncontract Election {\r\n\r\n    struct Candidate {\r\n        uint id;\r\n        string name;\r\n        string partyName;\r\n        string partySymbol;\r\n        uint voteCount;\r\n    }\r\n\r\n    struct Voter {\r\n        uint id;\r\n        uint age;\r\n        string name;\r\n        bool voted;\r\n    }\r\n\r\n    mapping (uint => Candidate) public candidates;\r\n    mapping (uint => Voter) public voters;\r\n    address public ownerAddress;\r\n    uint public candidatesCount;\r\n    uint public votersCount;\r\n    bool public votingStarted;\r\n\r\n    constructor() public payable {\r\n        ownerAddress = msg.sender;\r\n        candidatesCount = 0;\r\n        votersCount = 0;\r\n        votingStarted = false;\r\n    }\r\n\r\n    modifier onlyOwner() {\r\n        require(msg.sender == ownerAddress, \"Only owner can add a candidate/voter.\");\r\n        _;\r\n    }\r\n\r\n    function votingAction(bool _start) public onlyOwner {\r\n        votingStarted = _start;\r\n    }\r\n\r\n    function addVoter (string memory _name, uint _age) public onlyOwner payable {\r\n        if (_age < 18) {\r\n            revert(\"Age should be atleast 18\");\r\n        } else {\r\n            votersCount++;\r\n            voters[votersCount] = Voter(votersCount, _age, _name, false);\r\n        }\r\n    }\r\n\r\n    function addCandidate (string memory _name, string memory _partyName, string memory _partySymbol) public onlyOwner payable {\r\n        candidatesCount++;\r\n        candidates[candidatesCount] = Candidate(candidatesCount, _name, _partyName, _partySymbol, 0);\r\n    }\r\n\r\n    function voteCandidate (uint _voterId, uint _candidateId) public payable {\r\n        if (_voterId > votersCount || _candidateId > candidatesCount) {\r\n            revert(\"Invalid voting operation\");\r\n        } else if (!votingStarted) {\r\n            revert(\"You can't vote now.\");\r\n        } else {\r\n            if (voters[_voterId].voted) {\r\n                revert(\"Already voted!\");\r\n            } else {\r\n                candidates[_candidateId].voteCount++;\r\n                voters[_voterId].voted = true;\r\n            }\r\n        }\r\n    }\r\n\r\n}",
  "sourcePath": "C:/Users/Shubham Pathak/Documents/projects/elec_blockchain/contracts/Election.sol",
  "compiler": {
    "name": "solc",
    "version": "0.5.8+commit.23d335f2.Emscripten.clang"
  },
  "schemaVersion": "3.0.17",
  "updatedAt": "2019-11-14T17:46:10.770Z",
  "networkType": "ethereum",
  "devdoc": {
    "methods": {}
  },
  "userdoc": {
    "methods": {}
  }
}